:04000000EAEF3EF0F5
:107DD200120000EE12F00D0EEE6AE806FDE100015F
:107DE200F3EF3EF0120E016E000E026E050E036EF0
:107DF20028EC3FF0050EE9EC3EF08FEC3FF0060E6A
:107E0200116E300EE82EFED7112EFCD700D0F5D71A
:107E1200066E000E816E06B002D0809001D0808086
:107E220002B002D0809201D0808201B002D0809450
:107E320001D0808403C004F0010E056E042A02D032
:107E4200D8900536042EFCD70550816E120001C071
:107E5200D9FF02C0DAFF03C0DFFF20EE0BF00150B2
:107E6200D9260250DA22000EDF6E000E066E51D0C5
:107E72000650020D010EF326000EF422F3500124E7
:107E8200D96EF4500220DA6EDF90DF92DF94DF9633
:107E92000650020D010EF326000EF422F3500124C7
:107EA200D96EF4500220DA6EDF98DF9ADF9CDF9EF3
:107EB2000650020D010EF326000EF42201C004F05A
:107EC20002C005F0F3500426F4500522010E0424EA
:107ED200D96E000E0520DA6EDF90DF92DF94DF9616
:107EE2000650020D010EF326000EF42201C004F02A
:107EF20002C005F0F3500426F4500522010E0424BA
:107F0200D96E000E0520DA6EDF98DF9ADF9CDF9EC5
:107F1200062A0350065CD8B01200AAD71D50020DE3
:107F2200130EF324D96E000EF420DA6EDECF0FF0BA
:107F3200DDCF10F01EC007F00F500F0B086E1EC0F1
:107F420009F0010E0A6E092A02D0D8900A36092ECB
:107F5200FCD70A5008140B6E072A02D0D8900B32B5
:107F6200072EFCD70B500C6E1EC007F00F380F0BFC
:107F7200086E1EC009F0010E0A6E092A02D0D890BE
:107F82000A36092EFCD70A5008140B6E072A02D0B3
:107F9200D8900B32072EFCD70B500D6E1EC007F087
:107FA20010500F0B086E1EC009F0010E0A6E092A4E
:107FB20002D0D8900A36092EFCD70A5008140B6E4C
:107FC200072A02D0D8900B32072EFCD70B500E6E28
:107FD2000DC001F00EC002F01DC003F00C5009EC00
:107FE2003FF01D2A12501D5CD8A01200000E1D6E1B
:0E7FF2001E2A030E1E641200000E1E6E1200E8
:020000040020DA
:08000000FFFFFFFFFFFFFFFF00
:020000040030CA
:0E000000040C1F1EFF8080FF0FC00FE00F409A
:00000001FF
